:020000040800F2
:1000000000500020A9120008CD110008D3110008EB
:10001000D9110008DF110008E511000800000000F8
:10002000000000000000000000000000EB110008CC
:10003000F711000800000000031200080F1200086A
:10004000F1120008F1120008F1120008F112000884
:10005000F1120008F1120008F1120008F112000874
:10006000F1120008F1120008F1120008F112000864
:10007000F1120008F1120008F1120008F112000854
:10008000F1120008F1120008F1120008F112000844
:10009000F1120008F1120008F1120008F112000834
:1000A000F1120008F1120008F1120008F112000824
:1000B0001D120008F1120008F1120008F1120008E8
:1000C000F1120008F1120008F1120008F112000804
:1000D000F1120008F1120008F1120008F1120008F4
:1000E000F1120008F1120008F112000800000000EF
:1000F0000000000000000000000000000000000000
:0C01000000000000000000005FF808F1A3
:10010C0010B5054C237833B9044B13B10448AFF345
:10011C0000800123237010BD5C0000200000000053
:10012C00B42B000808B5034B1BB103490348AFF3CC
:10013C00008008BD0000000060000020B42B000807
:10014C0081F0004102E000BF83F0004330B54FEA7C
:10015C0041044FEA430594EA050F08BF90EA020FE9
:10016C001FBF54EA000C55EA020C7FEA645C7FEA7C
:10017C00655C00F0E2804FEA5454D4EB5555B8BF9F
:10018C006D420CDD2C4480EA020281EA030382EA10
:10019C00000083EA010180EA020281EA0303362DA2
:1001AC0088BF30BD11F0004F4FEA01314FF4801C75
:1001BC004CEA113102D0404261EB410113F0004F87
:1001CC004FEA03334CEA133302D0524263EB43033E
:1001DC0094EA050F00F0A780A4F10104D5F1200EDC
:1001EC000DDB02FA0EFC22FA05F2801841F1000137
:1001FC0003FA0EF2801843FA05F359410EE0A5F10B
:10020C0020050EF1200E012A03FA0EFC28BF4CF03B
:10021C00020C43FA05F3C01851EBE37101F00045F1
:10022C0007D54FF0000EDCF1000C7EEB00006EEBFE
:10023C000101B1F5801F1BD3B1F5001F0CD3490888
:10024C005FEA30004FEA3C0C04F101044FEA4452DF
:10025C0012F5800F80F09A80BCF1004F08BF5FEA66
:10026C00500C50F1000041EB045141EA050130BD46
:10027C005FEA4C0C404141EB0101013C28BFB1F558
:10028C00801FE9D291F0000F04BF01460020B1FAA3
:10029C0081F308BF2033A3F10B03B3F120020CDA76
:1002AC000C3208DD02F1140CC2F10C0201FA0CF054
:1002BC0021FA02F10CE002F11402D8BFC2F1200CB9
:1002CC0001FA02F120FA0CFCDCBF41EA0C0190406F
:1002DC00E41AA2BF01EB0451294330BD6FEA0404B8
:1002EC001F3C1CDA0C340EDC04F11404C4F12002A3
:1002FC0020FA04F001FA02F340EA030021FA04F3B5
:10030C0045EA030130BDC4F10C04C4F1200220FA0B
:10031C0002F001FA04F340EA0300294630BD21FA49
:10032C0004F0294630BD94F0000F83F4801306BF0F
:10033C0081F480110134013D4EE77FEA645C18BF03
:10034C007FEA655C29D094EA050F08BF90EA020F9A
:10035C0005D054EA000C04BF1946104630BD91EA92
:10036C00030F1EBF0021002030BD5FEA545C05D195
:10037C004000494128BF41F0004130BD14F58004D4
:10038C003CBF01F5801130BD01F0004545F0FE4148
:10039C0041F470014FF0000030BD7FEA645C1ABF7D
:1003AC00194610467FEA655C1CBF0B46024650EAB4
:1003BC00013406BF52EA033591EA030F41F40021E0
:1003CC0030BD00BF90F0000F04BF0021704730B566
:1003DC004FF4806404F132044FF000054FF000013B
:1003EC0050E700BF90F0000F04BF0021704730B5FC
:1003FC004FF4806404F1320410F0004548BF4042D1
:10040C004FF000013EE700BF42004FEAE2014FEA25
:10041C0031014FEA02701FBF12F07F4393F07F4F00
:10042C0081F06051704732F07F4208BF704793F003
:10043C007F4F04BF41F40021704730B54FF4607416
:10044C0001F0004521F000411CE700BF50EA010219
:10045C0008BF704730B54FF000050AE050EA0102C2
:10046C0008BF704730B511F0004502D5404261EB32
:10047C0041014FF4806404F132045FEA915C3FF473
:10048C00D8AE4FF003025FEADC0C18BF03325FEA10
:10049C00DC0C18BF033202EBDC02C2F1200300FAC1
:1004AC0003FC20FA02F001FA03FE40EA0E0021FAE6
:1004BC0002F11444BDE600BF70B54FF0FF0C4CF4D4
:1004CC00E06C1CEA11541DBF1CEA135594EA0C0F86
:1004DC0095EA0C0F00F0DEF82C4481EA030621EAC1
:1004EC004C5123EA4C5350EA013518BF52EA0335FC
:1004FC0041F4801143F4801338D0A0FB02CE4FF0AE
:10050C000005E1FB02E506F00042E0FB03E54FF0DD
:10051C000006E1FB03569CF0000F18BF4EF0010ED5
:10052C00A4F1FF04B6F5007F64F5407404D25FEAD1
:10053C004E0E6D4146EB060642EAC62141EA555184
:10054C004FEAC52040EA5E504FEACE2EB4F1FD0CC6
:10055C0088BFBCF5E06F1ED8BEF1004F08BF5FEA44
:10056C00500E50F1000041EB045170BD06F00046F6
:10057C0046EA010140EA020081EA0301B4EB5C04A3
:10058C00C2BFD4EB0C0541EA045170BD41F480119B
:10059C004FF0000E013C00F3AB8014F1360FDEBFC0
:1005AC00002001F0004170BDC4F10004203C35DA9C
:1005BC000C341BDC04F11404C4F1200500FA05F31F
:1005CC0020FA04F001FA05F240EA020001F00042C0
:1005DC0021F0004110EBD37021FA04F642EB060136
:1005EC005EEA430E08BF20EAD37070BDC4F10C0460
:1005FC00C4F1200500FA04F320FA05F001FA04F224
:10060C0040EA020001F0004110EBD37041F100010F
:10061C005EEA430E08BF20EAD37070BDC4F120051A
:10062C0000FA05F24EEA020E20FA04F301FA05F282
:10063C0043EA020321FA04F001F0004121FA04F22A
:10064C0020EA020000EBD3705EEA430E08BF20EAFA
:10065C00D37070BD94F0000F0FD101F00046400034
:10066C0041EB010111F4801F08BF013CF7D041EAB6
:10067C00060195F0000F18BF704703F000465200BA
:10068C0043EB030313F4801F08BF013DF7D043EA8B
:10069C000603704794EA0C0F0CEA135518BF95EA41
:1006AC000C0F0CD050EA410618BF52EA4306D1D1C8
:1006BC0081EA030101F000414FF0000070BD50EAE7
:1006CC00410606BF1046194652EA430619D094EA71
:1006DC000C0F02D150EA013613D195EA0C0F05D15B
:1006EC0052EA03361CBF104619460AD181EA0301AF
:1006FC0001F0004141F0FE4141F470014FF0000067
:10070C0070BD41F0FE4141F4780170BD70B54FF001
:10071C00FF0C4CF4E06C1CEA11541DBF1CEA135581
:10072C0094EA0C0F95EA0C0F00F0A7F8A4EB050463
:10073C0081EA030E52EA03354FEA013100F088805A
:10074C004FEA03334FF0805545EA131343EA126323
:10075C004FEA022245EA111545EA10654FEA0026D8
:10076C000EF000419D4208BF964244F1FD0404F591
:10077C00407402D25B084FEA3202B61A65EB0305ED
:10078C005B084FEA32024FF480104FF4002CB6EBAA
:10079C00020E75EB030E22BFB61A754640EA0C002A
:1007AC005B084FEA3202B6EB020E75EB030E22BF6A
:1007BC00B61A754640EA5C005B084FEA3202B6EBAB
:1007CC00020E75EB030E22BFB61A754640EA9C006A
:1007DC005B084FEA3202B6EB020E75EB030E22BF3A
:1007EC00B61A754640EADC0055EA060E18D04FEAF8
:1007FC00051545EA16754FEA06164FEAC30343EA98
:10080C0052734FEAC2025FEA1C1CC0D111F4801F64
:10081C000BD141EA00014FF000004FF0004CB6E75D
:10082C0011F4801F04BF01430020B4F1FD0C88BFFC
:10083C00BCF5E06F3FF6AFAEB5EB030C04BFB6EB07
:10084C00020C5FEA500C50F1000041EB045170BDFA
:10085C000EF0004E4EEA113114EB5C04C2BFD4EB27
:10086C000C0541EA045170BD41F480114FF0000EAB
:10087C00013C90E645EA060E8DE60CEA135594EA27
:10088C000C0F08BF95EA0C0F3FF43BAF94EA0C0F2A
:10089C000AD150EA01347FF434AF95EA0C0F7FF49F
:1008AC0025AF104619462CE795EA0C0F06D152EAF3
:1008BC0003353FF4FDAE1046194622E750EA4106D7
:1008CC0018BF52EA43067FF4C5AE50EA41047FF4E8
:1008DC000DAF52EA43057FF4EBAE12E74A0011D29A
:1008EC0012F5001211D20DD56FF47873B3EB62527E
:1008FC000ED44FEAC12343F0004343EA505323FA8A
:10090C0002F070474FF00000704750EA013002D1FE
:10091C004FF0FF3070474FF00000704780B500AFCC
:10092C0000F0E2FC00F009F800F08EF800F040F85E
:10093C0000F092FB00F0CAFBFCE780B590B000AF72
:10094C0007F1180328220021184602F0A1F83B1DDC
:10095C0000221A605A609A60DA601A610223BB6145
:10096C000123BB621023FB6200237B6307F1180396
:10097C00184600F0F5FF0346002B01D000F0E8F814
:10098C000F237B600023BB600023FB6000233B61D3
:10099C0000237B613B1D0021184601F063FA0346DE
:1009AC00002B01D000F0D4F800BF4037BD4680BD0D
:1009BC0080B586B000AF07F1080300221A605A60B8
:1009CC009A60DA603B4600221A605A601D4B4FF069
:1009DC0080421A601B4B4F225A601A4B00229A60BD
:1009EC00184B40F2E732DA60164B00221A61154BB5
:1009FC0000229A61134801F091FB0346002B01D0B1
:100A0C0000F0A6F84FF48053BB6007F108031946B9
:100A1C000C4801F02DFD0346002B01D000F098F896
:100A2C0000233B6000237B603B461946054801F0E0
:100A3C0003FF0346002B01D000F08AF800BF1837E3
:100A4C00BD4680BD7800002080B588B000AF07F1AE
:100A5C00100300221A605A609A60DA60384B9B6966
:100A6C00374A43F010039361354B9B6903F0100335
:100A7C00FB60FB68324B9B69314A43F00403936182
:100A8C002F4B9B6903F00403BB60BB682C4B9B6929
:100A9C002B4A43F008039361294B9B6903F008032D
:100AAC007B607B6800224FF40051264800F027FF42
:100ABC0000221021244800F022FF002240F20741BE
:100ACC00224800F01CFF4FF400533B6101237B6173
:100ADC000023BB610223FB6107F11003194619487F
:100AEC0000F072FD10233B6101237B610023BB618D
:100AFC000223FB6107F110031946134800F064FD53
:100B0C0040233B6100237B610123BB6107F1100390
:100B1C0019460D4800F058FD40F207433B61012394
:100B2C007B610023BB610223FB6107F110031946B3
:100B3C00064800F049FD00BF2037BD4680BD00BF10
:100B4C00001002400010014000080140000C014060
:100B5C0080B400AF72B600BFFEE7000080B483B073
:100B6C0000AF00237B604FE02E497A6813469B0050
:100B7C0013449B000B44023301221A7029497A68F2
:100B8C0013469B0013449B000B44023318782549F1
:100B9C007A6813469B0013449B000B4401330246B6
:100BAC001A7020497A6813469B0013449B000B442F
:100BBC00013318781B497A6813469B0013449B0039
:100BCC000B4402461A7017497A6813469B0013446B
:100BDC009B000B44043300221A7012497A681346A6
:100BEC009B0013449B000B44033300221A700D49E5
:100BFC007A6813469B0013449B000B4408339622DF
:100C0C001A607B6801337B607B68002BACDD054B85
:100C1C00054ADA60034B40221A8200BF0C37BD46EE
:100C2C0080BC7047C00000200008014080B582B035
:100C3C0000AF00237B60D5E06F497A6813469B00B8
:100C4C0013449B000B44013318786B497A681346A4
:100C5C009B0013449B000B4402461A7066497A6849
:100C6C0013469B0013449B000B44023318786249D3
:100C7C007A6813469B0013449B000B4401330246D5
:100C8C001A705D497A6813469B0013449B000B4411
:100C9C000C33186858497A6813469B0013449B0020
:100CAC000B4410331B88194600F012FE03461846FD
:100CBC0051497A6813469B0013449B000B44023342
:100CCC0002461A704C497A6813469B0013449B00E9
:100CDC000B44197848487A6813469B0013449B00D0
:100CEC00034401331B78994279D143497A681346FE
:100CFC009B0013449B000B44013319783E487A68DF
:100D0C0013469B0013449B00034402331B78994207
:100D1C0065D139497A6813469B0013449B000B44F8
:100D2C0002331B78002B33D133497A6813469B006E
:100D3C0013449B000B44033301221A702E497A682A
:100D4C0013469B0013449B000B4408331B68002B79
:100D5C0013D029497A6813469B0013449B000B441B
:100D6C0008331B68591E24487A6813469B001344A9
:100D7C009B0003440833196031E01F497A6813461D
:100D8C009B0013449B000B44043301221A7026E091
:100D9C0019497A6813469B0013449B000B44033398
:100DAC0000221A7014497A6813469B0013449B0066
:100DBC000B440333187810497A6813469B0013448C
:100DCC009B000B44043302461A700B497A68134695
:100DDC009B0013449B000B44083396221A607B68DB
:100DEC0001337B607B68002B3FF426AF00BF00BF54
:100DFC000837BD4680BD00BFC000002080B483B062
:100E0C0000AF78607B68002B01D0012308E0074914
:100E1C007A6813469B0013449B000B4404331B78E5
:100E2C0018460C37BD4680BC704700BFC000002080
:100E3C0080B586B000AF78600B467B8013463B8054
:100E4C000C2001F069FD0346FB60FB687A681A60B0
:100E5C007B881846FFF7C6FA4FF00002314BFFF7BC
:100E6C002BFB02460B46104619464FF000022E4B48
:100E7C00FFF74CFC02460B4610461946FFF72EFDB9
:100E8C0003469AB2FB689A80FB683A88DA80FB6862
:100E9C0000229A60254B1B68002B04D1234AFB6867
:100EAC001360012339E0214B1B687B611F4B1B68CE
:100EBC003B610CE0FB689A883B699B88D31A9AB219
:100ECC00FB689A803B697B613B699B683B613B6932
:100EDC00002B05D0FB689A883B699B889A42E9D223
:100EEC007A693B699A4206D07B69FA689A60FB681A
:100EFC003A699A6005E0FB683A699A600B4AFB68AC
:100F0C0013603B69002B07D03B699A88FB689B8870
:100F1C00D31A9AB23B699A80012318461837BD46FA
:100F2C0080BD00BF0000594000408F40D40000201D
:100F3C0080B400AF094B1B68002B0BD0074B1B6810
:100F4C009B88002B07D0054B1B689A88013A92B2FC
:100F5C009A8000E000BFBD4680BC7047D4000020E2
:100F6C0080B582B000AF78607B68002B03D07868C6
:100F7C0001F0DAFC00E000BF0837BD4680BD000080
:100F8C0080B582B000AF184B1B68002B01D1002339
:100F9C0026E0154B1B689B88002B20D1124B1B683D
:100FAC001B689847104B1B687B600F4B1B689B683A
:100FBC000D4A13607B6800229A607B68DB88002BEB
:100FCC0008D07B6818687B68D9887B68DB881A46F0
:100FDC00FFF72EFF7868FFF7C3FF012300E0002323
:100FEC0018460837BD4680BDD400002080B500AF40
:100FFC004FF40051024800F09AFC00BF80BD00BFC6
:10100C000010014080B500AF0121024800F08FFCB8
:10101C0000BF80BD000C014080B500AF022102482A
:10102C0000F085FC00BF80BD000C014080B500AF16
:10103C000421024800F07BFC00BF80BD000C014085
:10104C0080B500AF4FF48061024800F070FC00BF27
:10105C0080BD00BF000C014080B500AF144801F00A
:10106C00ADF8FFF77BFD4FF47A7200211148FFF7C2
:10107C00DFFE0A2200211048FFF7DAFE40F2DC52B4
:10108C0000210E48FFF7D4FE4FF4FA6200210C4801
:10109C00FFF7CEFE40F6C41200210A48FFF7C8FE47
:1010AC00002241F288310848FFF7C2FE00BF80BD24
:1010BC0078000020F90F0008390C00081110000806
:1010CC0025100008391000084D10000880B500AF3D
:1010DC00FFF756FF0020FFF791FE03461A4610213A
:1010EC00024800F00CFC00BF80BD00BF00080140AE
:1010FC0080B582B000AF78607B681A68044B1B68BF
:10110C009A4201D1FFF714FF00BF0837BD4680BDDE
:10111C007800002080B485B000AF154B9B69144A51
:10112C0043F001039361124B9B6903F00103BB6015
:10113C00BB680F4BDB690E4A43F08053D3610C4BF9
:10114C00DB6903F080537B607B680A4B5B68FB6058
:10115C00FB6823F0E063FB60FB6843F00073FB600B
:10116C00044AFB68536000BF1437BD4680BC70470F
:10117C00001002400000014080B584B000AF7860E0
:10118C007B681B68B3F1804F13D10C4BDB690B4AA6
:10119C0043F00103D361094BDB6903F00103FB60EE
:1011AC00FB68002200211C2000F0D7F91C2000F065
:1011BC00F0F900BF1037BD4680BD00BF00100240E3
:1011CC0080B400AFFEE780B400AFFEE780B400AFA0
:1011DC00FEE780B400AFFEE780B400AFFEE780B45A
:1011EC0000AF00BFBD4680BC704780B400AF00BFED
:1011FC00BD4680BC704780B400AF00BFBD4680BC0C
:10120C00704780B500AF00F0B5F800BF80BD00009E
:10121C0080B500AF024801F023F800BF80BD00BFCD
:10122C007800002080B586B000AF7860144A154B6A
:10123C00D31A7B617B693B61134B1B68002B02D17A
:10124C00114B124A1A60104B1A687B6813443A69A6
:10125C009A4207D201F034FC03460C221A604FF07C
:10126C00FF3309E0084B1B68FB60074B1A687B686F
:10127C001344054A1360FB6818461837BD4680BDF9
:10128C000050002000040000D8000020280200209C
:10129C0080B400AF00BFBD4680BC7047FFF7F8FFBD
:1012AC000B480C490C4A002302E0D458C4500433B8
:1012BC00C4188C42F9D3094A094C002301E013608D
:1012CC000432A242FBD301F001FCFFF727FB70476D
:1012DC00000000205C000020F82B00085C000020BF
:1012EC0028020020FEE7000080B500AF084B1B6809
:1012FC00074A43F010031360032000F023F90F207A
:10130C0000F008F8FFF706FF0023184680BD00BF69
:10131C000020024080B582B000AF7860124B1A6892
:10132C00124B1B7819464FF47A73B3FBF1F3B2FBF3
:10133C00F3F3184600F03BF90346002B01D00123D0
:10134C000EE07B680F2B0AD8002279684FF0FF3033
:10135C0000F003F9064A7B681360002300E00123C8
:10136C0018460837BD4680BD00000020080000204C
:10137C000400002080B400AF054B1B781A46054BC7
:10138C001B681344034A136000BFBD4680BC704702
:10139C0008000020DC00002080B400AF024B1B686A
:1013AC001846BD4680BC7047DC00002080B485B078
:1013BC0000AF78607B6803F00703FB600C4BDB68C5
:1013CC00BB60BA684FF6FF031340BB60FB681A02A0
:1013DC00BB68134343F0BF6343F40033BB60044A60
:1013EC00BB68D36000BF1437BD4680BC704700BFDC
:1013FC0000ED00E080B400AF044BDB681B0A03F087
:10140C0007031846BD4680BC704700BF00ED00E0E6
:10141C0080B483B000AF0346FB7197F90730002B03
:10142C000BDBFB7903F01F02064997F907305B09C8
:10143C00012000FA02F241F8232000BF0C37BD4610
:10144C0080BC704700E100E080B483B000AF03467D
:10145C003960FB7197F90730002B0ADB3B68DAB275
:10146C000C4997F907301201D2B20B4483F80023D0
:10147C000AE03B68DAB20849FB7903F00F03043B3E
:10148C001201D2B20B441A7600BF0C37BD4680BC99
:10149C00704700BF00E100E000ED00E080B489B0CF
:1014AC0000AFF860B9607A60FB6803F00703FB617A
:1014BC00FB69C3F10703042B28BF0423BB61FB6941
:1014CC000433062B02D9FB69033B00E000237B614C
:1014DC004FF0FF32BB6902FA03F3DA43BB681A40E0
:1014EC007B699A404FF0FF317B6901FA03F3D943D2
:1014FC007B680B40134318462437BD4680BC7047AD
:10150C0080B582B000AF78607B68013BB3F1807F1F
:10151C0001D301230FE00A4A7B68013B53600F2182
:10152C004FF0FF30FFF790FF054B00229A60044B01
:10153C0007221A60002318460837BD4680BD00BF3D
:10154C0010E000E080B582B000AF78607868FFF7FB
:10155C002DFF00BF0837BD4680BD80B586B000AFFB
:10156C000346B9607A60FB7300237B61FFF742FF8F
:10157C0078617A68B9687869FFF790FF024697F945
:10158C000F3011461846FFF75FFF00BF1837BD46F6
:10159C0080BD80B582B000AF0346FB7197F9073070
:1015AC001846FFF735FF00BF0837BD4680BD80B534
:1015BC0082B000AF78607868FFF7A2FF0346184648
:1015CC000837BD4680BD000080B48BB000AF78609A
:1015DC00396000237B6200233B6269E101227B6A54
:1015EC0002FA03F3FB613B681B68FA691340BB61A9
:1015FC00BA69FB699A4240F058813B685B689A4A29
:10160C0093425ED0984A934275D8984A934258D0E8
:10161C00964A93426FD8964A934252D0944A934238
:10162C0069D8944A93424CD0924A934263D8924AD6
:10163C00934246D0904A93425DD8122B2AD8122B53
:10164C0059D801A252F823F0CF160008A9160008A9
:10165C00BB160008FD160008031700080317000846
:10166C0003170008031700080317000803170008E6
:10167C0003170008031700080317000803170008D6
:10168C00031700080317000803170008B116000819
:10169C00C5160008794A934213D02CE03B68DB68EE
:1016AC003B6229E03B68DB6804333B6224E03B6827
:1016BC00DB6808333B621FE03B68DB680C333B6242
:1016CC001AE03B689B68002B02D104233B6213E0B9
:1016DC003B689B68012B05D108233B627B68FA6948
:1016EC001A6109E008233B627B68FA695A6103E0DE
:1016FC0000233B6200E000BFBB69FF2B01D87B6875
:10170C0001E07B6804337B61BB69FF2B02D87B6AE9
:10171C009B0002E07B6A083B9B003B617B691A687B
:10172C000F213B6901FA03F3DB431A40396A3B6929
:10173C0001FA03F31A437B691A603B685B6803F098
:10174C008053002B00F0B1804D4B9B694C4A43F009
:10175C00010393614A4B9B6903F00103BB60BB68B7
:10176C00484A7B6A9B08023352F82330FB607B6A41
:10177C0003F003039B000F2202FA03F3DB43FA6826
:10178C001340FB607B68404A934213D07B683F4A0E
:10179C0093420DD07B683E4A934207D07B683D4A0A
:1017AC00934201D1032306E0042304E0022302E068
:1017BC00012300E000237A6A02F0030292009340B6
:1017CC00FA681343FB602F497B6A9B080233FA6863
:1017DC0041F823203B685B6803F48013002B06D090
:1017EC002D4B9A682C49BB6913438B6006E02A4B3E
:1017FC009A68BB69DB43284913408B603B685B6884
:10180C0003F40013002B06D0234BDA682249BB6982
:10181C001343CB6006E0204BDA68BB69DB431E49FF
:10182C001340CB603B685B6803F40033002B06D09D
:10183C00194B5A681849BB6913434B6006E0164BA9
:10184C005A68BB69DB43144913404B603B685B68C7
:10185C0003F48033002B21D00F4B1A680E49BB695F
:10186C0013430B6021E000BF000032100000311068
:10187C0000002210000021100000121000001110B6
:10188C00001002400000014000080140000C014023
:10189C000010014000140140000401400B4B1A6879
:1018AC00BB69DB43094913400B607B6A01337B62E4
:1018BC003B681A687B6A22FA03F3002B7FF48EAE26
:1018CC0000BF00BF2C37BD4680BC704700040140F0
:1018DC0080B485B000AF78600B467B807B689A68DB
:1018EC007B881340002B02D00123FB7301E0002303
:1018FC00FB73FB7B18461437BD4680BC704780B425
:10190C0083B000AF78600B467B8013467B707B788E
:10191C00002B03D07A887B681A6103E07B881A0459
:10192C007B681A6100BF0C37BD4680BC704780B421
:10193C0085B000AF78600B467B807B68DB68FB6012
:10194C007A88FB6813401A04FB68D9437B880B40E8
:10195C001A437B681A6100BF1437BD4680BC7047C0
:10196C0080B586B000AF78607B68002B01D1012375
:10197C0072E27B681B6803F00103002B00F0878088
:10198C00924B5B6803F00C03042B0CD08F4B5B6801
:10199C0003F00C03082B12D18C4B5B6803F48033DF
:1019AC00B3F5803F0BD1894B1B6803F40033002B3C
:1019BC006CD07B685B68002B68D101234CE27B68A0
:1019CC005B68B3F5803F06D1804B1B687F4A43F4BC
:1019DC00803313602EE07B685B68002B0CD17B4B53
:1019EC001B687A4A23F480331360784B1B68774A60
:1019FC0023F4802313601DE07B685B68B3F5A02F94
:101A0C000CD1724B1B68714A43F4802313606F4BEB
:101A1C001B686E4A43F4803313600BE06B4B1B68FE
:101A2C006A4A23F480331360684B1B68674A23F4BB
:101A3C00802313607B685B68002B13D0FFF7ACFC32
:101A4C00386108E0FFF7A8FC02463B69D31A642B07
:101A5C0001D9032300E25D4B1B6803F40033002B18
:101A6C00F0D014E0FFF798FC386108E0FFF794FC25
:101A7C0002463B69D31A642B01D90323ECE1534B87
:101A8C001B6803F40033002BF0D100E000BF7B682F
:101A9C001B6803F00203002B63D04C4B5B6803F014
:101AAC000C03002B0BD0494B5B6803F00C03082B89
:101ABC001CD1464B5B6803F48033002B16D1434B8F
:101ACC001B6803F00203002B05D07B681B69012BFC
:101ADC0001D00123C0E13D4B1B6823F0F8027B6869
:101AEC005B69DB00394913430B603AE07B681B6987
:101AFC00002B20D0364B01221A60FFF74DFC3861C9
:101B0C0008E0FFF749FC02463B69D31A022B01D9C6
:101B1C000323A1E12D4B1B6803F00203002BF0D033
:101B2C002A4B1B6823F0F8027B685B69DB002749B2
:101B3C0013430B6015E0264B00221A60FFF72CFCB8
:101B4C00386108E0FFF728FC02463B69D31A022BE8
:101B5C0001D9032380E11D4B1B6803F00203002B0A
:101B6C00F0D17B681B6803F00803002B3AD07B682C
:101B7C009B69002B19D0174B01221A60FFF70CFC44
:101B8C00386108E0FFF708FC02463B69D31A022BC8
:101B9C0001D9032360E10D4B5B6A03F00203002BB8
:101BAC00F0D0012000F09CFA1CE00A4B00221A60D5
:101BBC00FFF7F2FB38610FE0FFF7EEFB02463B69E3
:101BCC00D31A022B08D9032346E100BF00100240B0
:101BDC000000424280044242924B5B6A03F00203D3
:101BEC00002BE9D17B681B6803F00403002B00F089
:101BFC00A6800023FB758B4BDB6903F08053002B15
:101C0C000DD1884BDB69874A43F08053D361854BF8
:101C1C00DB6903F08053BB60BB680123FB75824B0F
:101C2C001B6803F48073002B18D17F4B1B687E4A12
:101C3C0043F480731360FFF7AFFB386108E0FFF7E4
:101C4C00ABFB02463B69D31A642B01D9032303E196
:101C5C00754B1B6803F48073002BF0D07B68DB683A
:101C6C00012B06D16F4B1B6A6E4A43F001031362C2
:101C7C002DE07B68DB68002B0CD16A4B1B6A694A30
:101C8C0023F001031362674B1B6A664A23F00403BB
:101C9C0013621CE07B68DB68052B0CD1614B1B6A63
:101CAC00604A43F0040313625E4B1B6A5D4A43F0C7
:101CBC00010313620BE05B4B1B6A5A4A23F00103CE
:101CCC001362584B1B6A574A23F0040313627B6858
:101CDC00DB68002B15D0FFF75FFB38610AE0FFF7DC
:101CEC005BFB02463B69D31A41F28832934201D91D
:101CFC000323B1E04B4B1B6A03F00203002BEED025
:101D0C0014E0FFF749FB38610AE0FFF745FB024698
:101D1C003B69D31A41F28832934201D903239BE0E9
:101D2C00404B1B6A03F00203002BEED1FB7D012B11
:101D3C0005D13C4BDB693B4A23F08053D3617B6874
:101D4C00DB69002B00F08780364B5B6803F00C03DB
:101D5C00082B61D07B68DB69022B46D1334B002208
:101D6C001A60FFF719FB386108E0FFF715FB024614
:101D7C003B69D31A022B01D903236DE0294B1B6855
:101D8C0003F00073002BF0D17B681B6AB3F5803F26
:101D9C0008D1244B5B6823F400327B689B68214993
:101DAC0013434B601F4B5B6823F474127B68196AF6
:101DBC007B685B6A0B431B4913434B601B4B012233
:101DCC001A60FFF7E9FA386108E0FFF7E5FA024616
:101DDC003B69D31A022B01D903233DE0114B1B683D
:101DEC0003F00073002BF0D035E0104B00221A608A
:101DFC00FFF7D2FA386108E0FFF7CEFA02463B69EA
:101E0C00D31A022B01D9032326E0064B1B6803F0DF
:101E1C000073002BF0D11EE07B68DB69012B07D12E
:101E2C00012319E0001002400070004060004242A3
:101E3C000B4B5B68FB60FB6803F480327B681B6AAE
:101E4C009A4206D1FB6803F470127B685B6A9A4273
:101E5C0001D0012300E0002318461837BD4680BD91
:101E6C000010024080B584B000AF786039607B68A8
:101E7C00002B01D10123D0E06A4B1B6803F0070350
:101E8C003A689A4210D9674B1B6823F007026549E0
:101E9C003B6813430B60634B1B6803F007033A6802
:101EAC009A4201D00123B8E07B681B6803F002035F
:101EBC00002B20D07B681B6803F00403002B05D09B
:101ECC00594B5B68584A43F4E06353607B681B686A
:101EDC0003F00803002B05D0534B5B68524A43F4C4
:101EEC0060535360504B5B6823F0F0027B689B6837
:101EFC004D4913434B607B681B6803F00103002BB7
:101F0C0040D07B685B68012B07D1474B1B6803F4FF
:101F1C000033002B15D101237FE07B685B68022B1B
:101F2C0007D1414B1B6803F00073002B09D101232F
:101F3C0073E03D4B1B6803F00203002B01D101231E
:101F4C006BE0394B5B6823F003027B685B683649B6
:101F5C0013434B60FFF720FAF8600AE0FFF71CFA16
:101F6C000246FB68D31A41F28832934201D903230B
:101F7C0053E02D4B5B6803F00C027B685B689B00A5
:101F8C009A42EBD1274B1B6803F007033A689A423D
:101F9C0010D2244B1B6823F0070222493B681343E1
:101FAC000B60204B1B6803F007033A689A4201D080
:101FBC00012332E07B681B6803F00403002B08D07C
:101FCC00194B5B6823F4E0627B68DB6816491343AA
:101FDC004B607B681B6803F00803002B09D0124B85
:101FEC005B6823F460527B681B69DB000E4913436A
:101FFC004B6000F021F802460B4B5B681B0903F0A9
:10200C000F030A49CB5C22FA03F3094A1360094B0C
:10201C001B681846FFF77EF9002318461037BD469B
:10202C0080BD00BF0020024000100240CC2B0008F5
:10203C00000000200400002080B487B000AF002313
:10204C00FB600023BB6000237B6100237B600023CB
:10205C003B611E4B5B68FB60FB6803F00C03042BBD
:10206C0002D0082B03D027E0194B3B6127E0FB681B
:10207C009B0C03F00F03174AD35C7B60FB6803F4E3
:10208C008033002B10D0114B5B685B0C03F0010309
:10209C00114AD35CBB607B680D4A03FB02F2BB6840
:1020AC00B2FBF3F37B6104E07B680C4A02FB03F3A5
:1020BC007B617B693B6102E0054B3B6100BF3B6987
:1020CC0018461C37BD4680BC704700BF001002404C
:1020DC0000127A00DC2B0008EC2B000800093D00F4
:1020EC0080B485B000AF78600A4B1B680A4AA2FB2B
:1020FC0003235B0A7A6802FB03F3FB6000BFFB68F7
:10210C005A1EFA60002BF9D100BF00BF1437BD4630
:10211C0080BC704700000020D34D621080B582B0A7
:10212C0000AF78607B68002B01D1012341E07B6814
:10213C0093F83D30DBB2002B06D17B68002283F88C
:10214C003C207868FFF718F87B68022283F83D2062
:10215C007B681A687B6804331946104600F074FAE1
:10216C007B68012283F846207B68012283F83E209D
:10217C007B68012283F83F207B68012283F8402092
:10218C007B68012283F841207B68012283F842207E
:10219C007B68012283F843207B68012283F844206A
:1021AC007B68012283F845207B68012283F83D205F
:1021BC00002318460837BD4680BD000080B485B0AA
:1021CC0000AF78607B6893F83D30DBB2012B01D017
:1021DC0001233AE07B68022283F83D207B681B6870
:1021EC00DA687B681B6842F00102DA607B681B6866
:1021FC00184A93420ED07B681B68B3F1804F09D00C
:10220C007B681B68144A934204D07B681B68134A92
:10221C00934211D17B681B689B6803F00703FB603A
:10222C00FB68062B10D07B681B681A687B681B68E0
:10223C0042F001021A6007E07B681B681A687B6831
:10224C001B6842F001021A60002318461437BD4681
:10225C0080BC7047002C0140000400400008004086
:10226C0080B582B000AF78607B681B681B6903F097
:10227C000203022B22D17B681B68DB6803F002038C
:10228C00022B1BD17B681B686FF002021A617B6802
:10229C0001221A777B681B689B6903F00303002BF0
:1022AC0003D0786800F0B4F905E0786800F0A7F97D
:1022BC00786800F0B6F97B6800221A777B681B6897
:1022CC001B6903F00403042B22D17B681B68DB68B9
:1022DC0003F00403042B1BD17B681B686FF0040212
:1022EC001A617B6802221A777B681B689B6903F46E
:1022FC004073002B03D0786800F08AF905E0786809
:10230C0000F07DF9786800F08CF97B6800221A7770
:10231C007B681B681B6903F00803082B22D17B68C0
:10232C001B68DB6803F00803082B1BD17B681B6858
:10233C006FF008021A617B6804221A777B681B68AD
:10234C00DB6903F00303002B03D0786800F060F91D
:10235C0005E0786800F053F9786800F062F97B6862
:10236C0000221A777B681B681B6903F01003102B83
:10237C0022D17B681B68DB6803F01003102B1BD188
:10238C007B681B686FF010021A617B6808221A7751
:10239C007B681B68DB6903F44073002B03D07868FF
:1023AC0000F036F905E0786800F029F9786800F05B
:1023BC0038F97B6800221A777B681B681B6903F06D
:1023CC000103012B0ED17B681B68DB6803F0010352
:1023DC00012B07D17B681B686FF001021A617868CA
:1023EC00FEF786FE7B681B681B6903F08003802B5D
:1023FC000ED17B681B68DB6803F08003802B07D150
:10240C007B681B686FF080021A61786800F07BFAB9
:10241C007B681B681B6903F04003402B0ED17B6863
:10242C001B68DB6803F04003402B07D17B681B68FB
:10243C006FF040021A61786800F0FCF87B681B684A
:10244C001B6903F02003202B0ED17B681B68DB6813
:10245C0003F02003202B07D17B681B686FF0200250
:10246C001A61786800F046FA00BF0837BD4680BD97
:10247C0080B584B000AF786039600023FB737B6853
:10248C0093F83C30012B01D10223B4E07B6801228C
:10249C0083F83C207B68022283F83D207B681B6814
:1024AC009B68BB60BB6823F07703BB60BB6823F4FD
:1024BC007F43BB607B681B68BA689A603B681B688B
:1024CC00B3F5005F3ED0B3F5005F00F28780B3F543
:1024DC00805F00F08680B3F5805F7FD8702B1AD0B8
:1024EC00702B7BD8602B50D0602B77D8502B3CD0E6
:1024FC00502B73D8402B58D0402B6FD8302B64D036
:10250C00302B6BD8202B60D0202B67D8002B5CD0C5
:10251C00102B5AD062E07B6818683B6899683B685E
:10252C005A683B68DB6800F068F97B681B689B683D
:10253C00BB60BB6843F07703BB607B681B68BA6801
:10254C009A604FE07B6818683B6899683B685A68EA
:10255C003B68DB6800F051F97B681B689A687B6804
:10256C001B6842F480429A603CE07B6818683B68C8
:10257C0059683B68DB681A4600F0C8F87B681B6832
:10258C005021184600F01FF92CE07B6818683B6856
:10259C0059683B68DB681A4600F0E6F87B681B68F4
:1025AC006021184600F00FF91CE07B6818683B6846
:1025BC0059683B68DB681A4600F0A8F87B681B6812
:1025CC004021184600F0FFF80CE07B681A683B6865
:1025DC001B681946104600F0F6F803E00123FB7364
:1025EC0000E000BF7B68012283F83D207B6800225D
:1025FC0083F83C20FB7B18461037BD4680BD80B469
:10260C0083B000AF786000BF0C37BD4680BC70470C
:10261C0080B483B000AF786000BF0C37BD4680BC7F
:10262C00704780B483B000AF786000BF0C37BD46F4
:10263C0080BC704780B483B000AF786000BF0C37AB
:10264C00BD4680BC7047000080B485B000AF786098
:10265C0039607B681B68FB607B68294A93420BD00E
:10266C007B68B3F1804F07D07B68264A934203D036
:10267C007B68254A934208D1FB6823F07003FB600A
:10268C003B685B68FA681343FB607B681C4A9342A7
:10269C000BD07B68B3F1804F07D07B68194A93420B
:1026AC0003D07B68184A934208D1FB6823F440732B
:1026BC00FB603B68DB68FA681343FB60FB6823F044
:1026CC0080023B685B691343FB607B68FA681A60A5
:1026DC003B689A687B68DA623B681A687B689A6226
:1026EC007B68074A934203D13B681A697B681A637B
:1026FC007B6801225A6100BF1437BD4680BC70470D
:10270C00002C0140000400400008004080B487B059
:10271C0000AFF860B9607A60FB681B6A7B61FB688C
:10272C001B6A23F00102FB681A62FB689B693B6120
:10273C003B6923F0F0033B617B681B013A6913434F
:10274C003B617B6923F00A037B617A69BB681343A5
:10275C007B61FB683A699A61FB687A691A6200BF0F
:10276C001C37BD4680BC704780B487B000AFF860A2
:10277C00B9607A60FB681B6A7B61FB681B6A23F09B
:10278C001002FB681A62FB689B693B613B6923F48E
:10279C0070433B617B681B033A6913433B617B6964
:1027AC0023F0A0037B61BB681B017A6913437B6137
:1027BC00FB683A699A61FB687A691A6200BF1C3738
:1027CC00BD4680BC704780B485B000AF786039607E
:1027DC007B689B68FB60FB6823F07003FB603A68C6
:1027EC00FB68134343F00703FB607B68FA689A604D
:1027FC0000BF1437BD4680BC704780B487B000AFB3
:10280C00F860B9607A603B60FB689B687B617B69B0
:10281C0023F47F437B613B681A027B681A43BB68D5
:10282C0013437A6913437B61FB687A699A6000BF32
:10283C001C37BD4680BC704780B485B000AF786053
:10284C0039607B6893F83C30012B01D1022346E0C0
:10285C007B68012283F83C207B68022283F83D20B0
:10286C007B681B685B68FB607B681B689B68BB6054
:10287C00FB6823F07003FB603B681B68FA6813432A
:10288C00FB607B681B68FA685A607B681B68164A99
:10289C0093420ED07B681B68B3F1804F09D07B68E4
:1028AC001B68124A934204D07B681B68104A9342FF
:1028BC000CD1BB6823F08003BB603B685B68BA68D3
:1028CC001343BB607B681B68BA689A607B68012203
:1028DC0083F83D207B68002283F83C2000231846B7
:1028EC001437BD4680BC7047002C014000040040EA
:1028FC000008004080B483B000AF786000BF0C3794
:10290C00BD4680BC704780B483B000AF786000BF18
:10291C000C37BD4680BC7047024B0146186800F06E
:10292C002BB800BF58000020024B0146186800F07D
:10293C00F3B800BF5800002070B50E4E0C4631683D
:10294C00054611B900F0ACF830602146284600F07D
:10295C00A7F8431C0AD0C41C24F00304A04207D0DF
:10296C00211A284600F09CF8013001D14FF0FF34B9
:10297C00204670BDE40000202DE9F843CD1C25F065
:10298C00030508350C2D38BF0C25002D074601DB3F
:10299C00A94205D90C2300263B603046BDE8F883DC
:1029AC00DFF8D08000F068F8D8F800301C465CBB2B
:1029BC0029463846FFF7C0FF431C044655D1D8F8CA
:1029CC0000402646002E45D1002C48D023683146C5
:1029DC00384604EB030900F063F881453FD12168C8
:1029EC0038466D1A2946FFF7A7FF013037D0236808
:1029FC002B442360D8F80030002B38D05A68A24200
:102A0C002BD100225A600FE02268521B1FD40B2AD4
:102A1C0017D96119A342256018BF5960636808BFB4
:102A2C00C8F8001062514B60384604F10B0600F0F8
:102A3C0029F826F00706231DF21AAED09B1BA350D3
:102A4C00ABE7A3426268DDD1C8F80020ECE723466F
:102A5C006468ACE734467668B4E71346CCE70C23DD
:102A6C0038463B6000F00EF897E72560DCE75B60CA
:102A7C00FFDE00BFE0000020014800F04BB800BFB3
:102A8C0024020020014800F046B800BF24020020B8
:102A9C0003460244934200D1704703F8011BF9E747
:102AAC0038B50023054D044608462B60FEF7BAFBEB
:102ABC00431C02D12B6803B1236038BD20020020D7
:102ACC00014B1868704700BF5800002070B50026F5
:102ADC000C4D0D4C641BA410A64209D100F064F8F7
:102AEC0000260A4D0A4C641BA410A64205D170BDE9
:102AFC0055F8043B98470136EEE755F8043B9847E8
:102B0C000136F2E7F02B0008F02B0008F02B000840
:102B1C00F42B00087047704738B50546002940D0A3
:102B2C0051F8043C0C1F002BB8BFE418FFF7A4FFAE
:102B3C001C4A136833B9636014602846BDE83840FA
:102B4C00FFF7A0BFA34208D9206821188B4201BF10
:102B5C0019685B6809182160EDE71A465B680BB1D0
:102B6C00A342FAD911685018A0420BD12068014435
:102B7C00501883421160E0D118685B6808441060FB
:102B8C005360DAE702D90C232B60D6E720682118B2
:102B9C008B4201BF19685B6809182160636054603F
:102BAC00CBE738BDE0000020F8B500BFF8BC08BC8E
:102BBC009E467047F8B500BFF8BC08BC9E467047EF
:102BCC0000000000000000000102030406070809D1
:102BDC0002030405060708090A0B0C0D0E0F101052
:042BEC0001020000E2
:042BF00031010008A7
:042BF4000D010008C7
:102BF8000024F400100000000100000000000000A4
:102C0800E800002050010020B8010020000000006A
:102C180000000000000000000000000000000000AC
:102C2800000000000000000000000000000000009C
:102C3800000000000000000000000000000000008C
:0C2C480000000000000000000C00002054
:04000005080012A934
:00000001FF
